:10000000D2C0ECC0D4C7EAC0E9C0E8C0E7C0E6C0CF
:10001000E5C0E4C07EC7F1C7E1C0E0C0DFC02D2D60
:100020002D2D454E442D2D2D2D0D0A002D2D2D2D20
:100030004C4F472D2D2D2D0D0A00587376663A2012
:10004000496E76616C696420696E7374727563744D
:10005000696F6E2025780A005873766620646F6E8B
:1000600065210A0043616E27742068616E646C65C7
:1000700020787376662120526571756573746564A6
:100080002073647273697A653A2025692062697405
:10009000732C2063616E2068616E646C6520256935
:1000A0002120496E637265617365204D4158544447
:1000B0004F425954455320706C7A2E0A005873767B
:1000C000662070617273652073746172740A000A2D
:1000D00000253032782000676F7420002530327898
:1000E00020005368696674206661696C2E2045782B
:1000F0007065637465643A20005761726E696E675B
:100100003A207368696674696E6720696E20696E4B
:10011000636F6D70617469626C652073746174657E
:100120002025690A000121935454867684210ACB44
:10013000CBFDEDFB210100FDFF03FEE7FFEFFF0F0D
:10014000FFBFFF0FFFFDFEFF01FFF3FFF7FF87FF7C
:10015000DFFF87FD7F44726F7070696E6720746F78
:1001600020786D6F64656D2E0D0A00446F6E6520FA
:10017000636F6E6669677572696E673A207375633F
:10018000636573732E0A005077722D6F6E0A0045F7
:10019000464765666700202B2D2E303132333435CB
:1001A00036373839680011241FBECFE5D2E0DEBFF4
:1001B000CDBF10E0A0E6B0E0ECEAF5E102C00590AA
:1001C0000D92AA39B107D9F710E0AAE9B0E001C051
:1001D0001D92A03EB107E1F734D3E6C911CF90914B
:1001E000A40092FFFCCF9FB7F8948093A600809163
:1001F000A4008B7F8093A4009FBF80E090E00895CF
:100200008091A40080FFFCCF8091A4008E7F80931A
:10021000A4008091A30090E008958091B500882308
:1002200019F488B380936E001DB887B3886187BBCB
:1002300088B3886188BBB898C0989FB7F89489B78D
:10024000806189BF8BB780628BBF88E188BF80E205
:100250008ABF9FBF81E08093B50008958FB991E177
:100260009DB983E18DB99DB98DB99DB98DB99DB900
:100270008DB99DB98DB99DB98DB99DB98DB99DB90E
:100280008DB98FB10895662311F0C29A01C0C2984A
:10029000882311F0C19A01C0C198C49A86B3C4984A
:1002A00081700895882311F0C19A01C0C198C49A41
:1002B000C4980895D3CF8FEFD1CFC3988BEAFADFDC
:1002C00080E0F8DF80E0F6DF80E0F4DFF4DFC39A5F
:1002D0000895E091B400F0E0EB5DFE4FE4918111F0
:1002E000E295EF708E2F08950F931F93CF93DF93B6
:1002F000082FC1E0D0E0082E02C0CC0FDD1F0A9409
:10030000E2F715C0F0E0EE0FFF1FEB5CFE4F25910A
:1003100034912C233D2311E02115310509F410E01F
:1003200081E0612FB0DF812FD4DF8093B400E091B2
:10033000B4000E1739F7DF91CF911F910F910895F7
:100340008091A40081FFFCCF89B7877E89BF8BB7DE
:100350008F7D8BBF1092A1001092A50086E0809344
:10036000A40008958091B500813011F4E9DF05C043
:10037000882319F488B380936E0087B38E6087BB9F
:10038000B89888B3896088BB88B3897F88BB82E0CE
:100390008093B5000895A0E0B0E0E0EDF1E0B0C7D3
:1003A000A895E090B600F090B7000091B8001091C9
:1003B000B9009FE1A92EB12CC12CD12CAE20BF20B9
:1003C000C022D122A114B104C104D10431F5CADF85
:1003D000C3988BE06FDF802F81956CDF8F2D819527
:1003E00069DF8E2D67DF80E065DFCAEBD0E063DF79
:1003F000899380E0CA3DD807D1F7C39A8091B500B0
:10040000813009F49DDF1DB880916E0088BB87B3F1
:10041000866187BBB8981092B500F501E654FF4F8E
:1004200080810894E11CF11C011D111DE092B600B1
:10043000F092B7000093B8001093B900CDB7DEB7C3
:10044000EAE07AC7EF92FF920F931F93CF93DF9367
:10045000C4E0D0E020E030E0A901EE24F22E032F2A
:10046000142F99DFA8019701280F311D411D511D3F
:10047000219799F7B901CA01CDB7DEB7E6E060C7A9
:10048000EF92FF920F931F93CF93DF93EB01279689
:1004900073E0D695C7957A95E1F77C01EC0EFD1EC9
:1004A00000E010E006C077DFF70182937F010F5F65
:1004B0001F4F0C171D07BCF3CDB7DEB7E6E040C7F2
:1004C00091B797FD08C0292F30E020543040359572
:1004D0002795922F90549093A00087FD08C0282F55
:1004E00030E02054304035952795205401C0282F06
:1004F00020939F00921714F431E001C03FEF309336
:100500009D0030919D0003C041BF00000000592FA5
:10051000930F492F431B4217B9F750939E0081BF99
:1005200008951F93182F882319F480919B0004C00D
:10053000813019F480919C00C3DF10939A001F91C1
:100540000895A0E0B0E0E6EAF2E0DBC6F82EE62E81
:10055000D42E8091B4008B30C1F08430B1F0813062
:10056000A1F000D000D0EDB7FEB7319629EF30E012
:10057000ADB7BEB712963C932E9311978283138228
:1005800079D70F900F900F900F90C0E0D0E0BB2470
:10059000B394CC240E2D10E0015010400EC08F2DCE
:1005A000817061E0C017D10709F060E06D216BDE5A
:1005B000F6948111CB28BB0C2196CE1580F3DD205B
:1005C00021F081E086DE8093B4008C2DCDB7DEB7BC
:1005D000E9E0B3C68F929F92BF92CF92DF92EF92E3
:1005E000FF920F931F93DF93CF9300D0CDB7DEB769
:1005F0007C01B62EC42E4C01DD24D39490E044C07F
:10060000092F10E0E091AE00F091AF00E00FF11F74
:100610008081B40139E08316910414F068E070E041
:1006200049E08416910424F4E1E0F0E0222311F47F
:10063000E0E0F0E04E2F2A83998383DF99812A81BD
:100640009830E8F4E091AE00F091AF00E00FF11FB8
:100650008083BB20A1F0E091B000F091B100E00FE9
:10066000F11F3081CC2049F0E091B200F091B3004D
:10067000E00FF11F4081842334238313DD24E8EF4E
:10068000FFEF8E0E9F1E9F5F181419040CF4B8CF55
:10069000DD2009F070C000D082EE90E0EDB7FEB72B
:1006A00092838183E7D6B7E08B2E912C8E0C9F1C12
:1006B000A3E095948794AA95E1F70F900F90EE240C
:1006C0000CED10E01BC000D000D0ADB7BEB7119646
:1006D000EDB7FEB712830183E091B000F091B10055
:1006E000E80FF91F808112968C93129713961C9233
:1006F000C1D6E3940F900F900F900F908E2D90E045
:100700008815990504F300D087ED90E0EDB7FEB7AA
:1007100092838183AFD60F900F90EE2401ED10E00D
:100720001BC000D000D0ADB7BEB71196EDB7FEB775
:1007300012830183E091AE00F091AF00E80FF91F42
:10074000808112968C93129713961C9293D6E39401
:100750000F900F900F900F908E2D90E088159905B7
:1007600004F300D08FEC90E0EDB7FEB79283818365
:1007700081D60F900F908D2D0F900F90CF91DF911C
:100780001F910F91FF90EF90DF90CF90BF909F90BF
:100790008F9008958091A8009091A90025E780335B
:1007A000920784F01EC0A895F9013197F1F70196E0
:1007B00045E78033940744F09093A9008093A80004
:1007C00080E0089520E931E04091A40040FFEBCFA4
:1007D0009093A9008093A8008091DA009091DB00AB
:1007E000C9C580E008950F931F93CF93DF93082F1F
:1007F00010919A0080E095DEC0E0D0E001C0219623
:10080000CE01B8D68F3F29F482E0C030D80739F442
:1008100004C082E0C030D80791F7C0E0D0E0CE013C
:10082000602FB0D6CE0101966FEFACD6E199FECF26
:10083000812F77DE80E090E0DF91CF911F910F91C3
:100840000895A3E9B0E0E6E2F4E052C581B78093F1
:100850009B008FEF80939C0010929A002EE088E11D
:1008600090E00FB6F894A89581BD0FBE21BD7ADD4A
:1008700024DD8FE690E09093DD008093DC0000D0D3
:1008800087E891E0ADB7BEB712969C938E9311970F
:10089000F1D50F900F9081E044DE6624772406C0E6
:1008A000B3E06B16710411F480E03BDE1092B600E9
:1008B0001092B7001092B8001092B90080E290E058
:1008C000A0E0B0E08093AA009093AB00A093AC00AE
:1008D000B093AD00A1E1B0E0AC0FBD1FB093AF008D
:1008E000A093AE00E1E0F0E0EC0FFD1FF093B1004B
:1008F000E093B00029E030E02C0F3D1F3093B300AF
:100900002093B20000D0EDEBF0E0ADB7BEB7129689
:10091000FC93EE931197AED50F900F9000E010E08E
:1009200081E061E0B0DC0F5F1F4F00321105C1F7BD
:100930001092B400992493942224332421012BDDB6
:10094000E82E813051F46091AA007091AB00809143
:10095000B2009091B30094DDF2CF873011F41BDD2B
:10096000EECF843021F46EDD1B012C01E8CF823004
:1009700011F0853159F50FDD082F10E08E2D8531EE
:1009800099F409DDCE56DF4F8883C259D040CF5647
:10099000DF4F1882C159D040CF56DF4FA881B981AF
:1009A000C159D0400A2B1B2B8091AE009091AF0013
:1009B000B80166DD8BE098DCC80160E040E021E032
:1009C00009DEBE2DB23009F415C110C1833011F01B
:1009D0008930F1F484E088DC0091AA001091AB002A
:1009E0008091AE009091AF00B8014ADDFE2DF93044
:1009F00031F48091B0009091B100B80141DDC8019F
:100A000061E041E021E0E6DD882309F0EFC018C194
:100A10008830A9F517DD6093AA007093AB0080932E
:100A2000AC009093AD00613034E0730730E0830791
:100A300030E0930708F483CFADB7BEB718970FB671
:100A4000F894BEBF0FBEADBFEDB7FEB7319624E63A
:100A500030E012963C932E931197628373838483C4
:100A6000958380E094E09783868304D5EDB7FEB745
:100A700038960FB6F894FEBF0FBEEDBF3AC28C5049
:100A8000833008F04DC0FE2DFC3011F484E02CDCE6
:100A90000091AE001091AF00A090AA00B090AB0002
:100AA000C801B501EDDCC501019723E09595879557
:100AB0002A95E1F7F82E68011BC0D6018D906D01D3
:100AC000882D8170EFDB882D8270ECDB882D84709F
:100AD000E9DB882D8870E6DB882D8071E3DB882DCB
:100AE0008072E0DB882D8074DDDB882D8078DADB96
:100AF0008C2D801B8F1508F3F801EF0DF11D8F2D44
:100B000068EFEDD3682F6A0D41E0BE2DBE3009F0CD
:100B100040E0808116DDEE2DEE3009F067C08BC01D
:100B20008E2D8F50833028F5FE2DFF3011F484E098
:100B3000DBDB0091AA001091AB008091AE00909198
:100B4000AF00B8019DDC8091B0009091B100B80178
:100B500097DC21E03E2D313109F420E0C80161E04D
:100B600040E038DD882309F46BC08E2D8131F1F52A
:100B700062C0EE2069F400D088E590E0ADB7BEB762
:100B800012969C938E93119775D40F900F90B1C1CC
:100B9000BE2DB23111F4FFDB51C0EE2DE33139F43B
:100BA000FADB882309F4B2C19DE0992EC8CEFE2D50
:100BB000F43139F4F0DB882309F4A8C186E0982EDB
:100BC000BECE00D000D0EDB7FEB731962AE330E0BC
:100BD000ADB7BEB712963C932E931197E282138263
:100BE00049D40F900F900F900F902AC03E2D3330B4
:100BF00009F0A5CE2114310441045104C9F081E06B
:100C000073DBEE24FF2487010DC080E061E040E04B
:100C100098DC80EA9FE00197F1F70894E11CF11C51
:100C2000011D111DE214F3040405150570F387CEB0
:100C30008E2D823011F081E001C0892D55DB7FCEF1
:100C40000894611C711C95E06916710409F028CEA6
:100C500080E067DC82E08ABD83BF83E389BD1092B8
:100C6000A1001092A50081E085BB86E08093A400DE
:100C70008DE790E09093DD008093DC008BE890E0BE
:100C80009093DB008093DA00C8DA789400D085E591
:100C900091E0ADB7BEB712969C938E931197EAD3AD
:100CA0000F900F905FDB09DBCD56DF4F8883C35970
:100CB000D040B3DA00D000D0EDB7FEB7319620E6D1
:100CC00030E0ADB7BEB712963C932E931197CD5638
:100CD000DF4F8881C359D04082831382B9D30F90EC
:100CE0000F900F900F903EDB98DA6091DC007091CE
:100CF000DD0085E190E080D3662477244301DD2484
:100D0000D394CC2401E1202E312C2C0E3D1E11E970
:100D1000412E512C4C0E5D1E1092A9001092A8007D
:100D200039DD082F112707FD10958091A8009091BB
:100D3000A900B5E780339B0739F46091DC0070911E
:100D4000DD0085E190E058D30C36110509F04BC069
:100D500000D02CE230E0EDB7FEB7328321838AD396
:100D60000F900F900FEF11E002C001501040C8012A
:100D700001D48F3F19F001151105B9F7AA24BB243E
:100D8000C8010F5F1F4FF6D3E82E8A3041F46091FF
:100D9000DC007091DD008DE090E02ED302C087FD75
:100DA00007C06091DC007091DD008E2D90E024D3AF
:100DB00032E00030130711F400E010E00894A11CA9
:100DC000B11C80E0A81682E0B806D1F600D0EEE1B2
:100DD000F0E0ADB7BEB71296FC93EE9311974AD3ED
:100DE0000F900F9099CF0130110561F0043011057B
:100DF00009F092CF6091DC007091DD0086E090E018
:100E0000FBD276C01092A9001092A800C3DCB82EC5
:100E1000C1DC71018101AA24BDDCD8018D938D0153
:100E2000A80EA415B505C1F7B5DC8A1509F058C0A0
:100E30002B2D30E08C2D8F5F90E02817390709F0BB
:100E40004FC08091A8009091A900B5E780339B071F
:100E50000CF046C087DADD2089F0C39886E02ADAF4
:100E6000C39AC39887EC26DAC39AC39885E022DA3E
:100E700001C0A89520DA81FDFCCFC39AC39886E013
:100E800019DAC39AC39882E015DA882D819512DAAF
:100E9000872D81950FDA862D81950CDAF7018191E6
:100EA0007F0108DAE414F504C9F7C39AC39885E012
:100EB00001DA01DA81FDFDCFC39AAFD96091DC0080
:100EC0007091DD0086E090E097D280E890E0A0E0AD
:100ED000B0E0680E791E8A1E9B1ECB2CDD241CCF31
:100EE0006091DC007091DD0085E190E085D214CF47
:100EF000FFCF00D08BE691E0ADB7BEB712969C93C2
:100F00008E931197B7D20F900F90A2CE99249394FD
:100F100016CD1F920F920FB60F9211248F938091CE
:100F2000A5008823B9F48091A40082FD3AC0C4983A
:100F300082E08093A5008091A6008093A700809115
:100F4000A40084608093A4008091A4008D7F80938E
:100F5000A40027C08091A50082308CF08091A5006C
:100F60008A306CF48091A70080FF02C0C49A01C04F
:100F7000C4988091A70085958093A70005C08091B3
:100F8000A5008A3039F4C49A8091A5008F5F8093C0
:100F9000A50007C08091A40082608093A4001092F5
:100FA000A5008F910F900FBE0F901F9018951F9264
:100FB0000F920FB60F9211248F939F938091A100EF
:100FC0008823A1F4B09912C081E08093A10092B768
:100FD00089B58695890F99B5891710F099B5891B40
:100FE00088BD89B7886089BF88E088BF9F918F914D
:100FF0000F900FBE0F901F9018951F920F920FB673
:101000000F9211248F938091A1008823C9F18091C0
:10101000A100813039F4B09B03C01092A10030C010
:1010200082E017C08091A1008230B4F08091A100CD
:101030008A3094F48091A20086958093A200B09BA0
:1010400005C08091A20080688093A2008091A100D9
:101050008F5F8093A10014C08091A1008A3081F439
:10106000B09B09C08091A2008093A3008091A4004E
:1010700081608093A4001092A10089B7877F89BF07
:101080008F910F900FBE0F901F901895ACE0B0E0BD
:10109000EBE4F8E031C16C013B018A01FC011782ED
:1010A0001682838181FD03C014C1850104C04E01F5
:1010B0000894811C911CF601E380F301E3FC859107
:1010C000E3FE81913F01882309F4FFC0853251F48A
:1010D000E3FC2591E3FE21913F01253211F0FF242D
:1010E00021C085E290E0B60187D15801DECF2223EE
:1010F00009F485C086E991E0622F70E02C872FD13A
:101100002C85009749F4233219F4F0E1FF2A04C03A
:101110002C3669F420E8F22AF301E3FC2591E3FE82
:1011200021913F01F7FEE3CF222309F43CC08FE871
:1011300091E0622F70E02C8712D12C85009741F04E
:1011400064E0A62EB12CA00EB11E8FE390E00FC07C
:10115000233629F0233781F0233519F50BC052E0EF
:10116000A52EB12CA00EB11EF80180819181B6018F
:1011700043D19BCFF1E0FF2A42E0A42EB12CA00E78
:10118000B11EF8010081118103C090E0B60134D195
:10119000F801F0FC8591F0FE81918F018823A9F779
:1011A00084CF243611F0293651F5F7FE0BC034E018
:1011B000A32EB12CA00EB11EF80160817181828135
:1011C00093810CC022E0A22EB12CA00EB11EF8011A
:1011D00060817181882777FD8095982FFFEEFF222F
:1011E00097FF09C090958095709561957F4F8F4FBF
:1011F0009F4F20E4F22AA4012AE030E03BC02037D0
:1012000099F0213730F42835B1F02F3609F05DC060
:1012100017C0253721F0283709F057C007C08FEED7
:10122000F8222AE030E00EC0E0E1FE2AF4E2FF2AD4
:1012300020E130E007C024E0F22A20E132E002C0E1
:1012400028E030E0F7FE0BC094E0A92EB12CA00EF0
:10125000B11EF80160817181828193810AC082E0B0
:10126000A82EB12CA00EB11EF8016081718180E022
:1012700090E0A4011FD1E82EE8180F2D10E0F6FE33
:1012800004C08DE290E0B601B7D004FF13C0FE01A8
:10129000EE0DF11D8081803369F080E390E0B601AE
:1012A000ABD002FF07C0C80180729070885A9F4F70
:1012B000B601A2D0EA94F401EE0DF11D808190E018
:1012C000B6019AD0EE20B1F7F0CEF6012681378133
:1012D00002C02FEF3FEFC9012C96EEE029C0002499
:1012E00080FD060E660F11F08695D1F7802D0895CA
:1012F0002F923F924F925F926F927F928F929F9226
:10130000AF92BF92CF92DF92EF92FF920F931F9313
:10131000CF93DF93CDB7DEB7CA1BDB0B0FB6F894C4
:10132000DEBF0FBECDBF09942A88398848885F8404
:101330006E847D848C849B84AA84B984C884DF8075
:10134000EE80FD800C811B81AA81B981CE0FD11D59
:101350000FB6F894DEBF0FBECDBFED010895FC01BE
:101360000590061621F00020D9F7C00108953197A5
:10137000CF010895CF93DF93EC013B8130FF36C05E
:1013800036FF09C03F7B3B838E819F8101969F83FF
:101390008E832A8129C032FF0FC0E881F9818081C4
:1013A000992787FD9095009719F430623B831EC002
:1013B0003196F983E88311C0EA85FB85CE01099552
:1013C00097FF0BC02B813FEF8F3F930711F480E114
:1013D00001C080E2822B8B8309C02E813F812F5F69
:1013E0003F4F3F832E83282F30E002C02FEF3FEF87
:1013F000C901DF91CF9108950F931F93CF93DF938E
:101400008C01EB018B8181FF1BC082FF0DC02E81FF
:101410003F818C819D812817390764F4E881F98127
:101420000193F983E88306C0E885F985802F099543
:10143000009731F48E819F8101969F838E8302C035
:101440000FEF1FEFC801DF91CF911F910F9108950A
:10145000A0E0B0E0EDE2FAE05BCFFE0135966191ED
:1014600071918091DC009091DD00AF010FDE20963C
:10147000E2E06ACFA0E0B0E0EFE3FAE049CFFE019E
:101480003596619171918091DC009091DD00DC01D5
:1014900013962C911397286013962C93AF01F6DDC9
:1014A000E091DC00F091DD002381277F23832096EB
:1014B000E2E04ACFFA01AA27283061F1203191F108
:1014C000E8946F936E7F6E5F7F4F8F4F9F4FAF4F4C
:1014D000B1E040D0B4E03ED0670F781F891F9A1F5B
:1014E000A11D680F791F8A1F911DA11D6A0F711D13
:1014F000811D911DA11D22D009F468943F91062EF3
:10150000000C3019000C000C3019305D3193CEF610
:10151000CF010895462F4770405D4193B3E00FD04F
:10152000C9F7F6CF462F4F70405D4A3318F0495D3A
:1015300031FD4052419302D0A9F7EACFB4E0A6951D
:101540009795879577956795BA95C9F7009761053F
:10155000710508959B01AC010A2E06945795479595
:1015600037952795BA95C9F7620F731F841F951F8A
:10157000A01D0895E199FECF9FBB8EBBE09A9927ED
:101580008DB30895262FE199FECF9FBB8EBBE09AC5
:1015900001970DB2021639F01CBA2DBB0FB6F894A4
:0C15A000E29AE19A0FBE0895F894FFCF84
:1015AC00466C6173682049443D25690D0A0016009C
:1015BC0000000200000000F3030000000000000027
:1015CC000200000000EF000000000000000001001D
:0A15DC000000000000000100000004
:00000001FF
